:0F000300EFD394004009E4FE0EBE73FC1F80F1A2
:0100120022CB
:05001300D2B4C2B422CA
:100026008E328F33C2B3C2B4C2B5D2B2D2B530B2F9
:10003600FDD2B3120013AF32EF14600F1460111427
:10004600601324037012E4F533800D753330800895
:100056004333C08003753320E4FFE5337807A2E716
:1000660013D8FB24FF92B3120013E53325E0F533D2
:0A0076000FBF08E6C2B3C2B4C2B562
:01008000225D
:080081008E2E8F2FAB05AA049F
:100089007F007E01120026852E30852F31C2B3C232
:10009900B4C2B5D2B2D2B530B2FDD2B3120013E5B3
:1000A9002FB4FF0AE52EB4FF0575311080034331E3
:1000B90040E4FDE5317807A2E713D8FB24FF92B3AA
:1000C900120013E53125E0F5310DBD08E6E4FDEB3D
:1000D900AE02780FCEA2E713CE13D8F84E24FF92C2
:1000E900B3120013EB25E0FBEA33FA0DBD10E0C2B1
:0B00F900B3C2B4C2B5E4FFFE12002643
:0101040022D8
:10010500430780E4FEC2B3C2B4C2B5D2B2D2B530A1
:10011500B2FDD2B5D2B3120013E4FDEF7807A2E722
:1001250013D8FB24FF92B3120013EF25E0FF0DBD9A
:1001350008E930B20F0EBE0ACCC2B3C2B4C2B57E56
:10014500FF7FFF22E4FDE52F25E0F52FE52E33F5B2
:100155002E120013A2B2E433422FE40DBD10E7C204
:09016500B3C2B4C2B5AE2EAF2F37
:01016E00226E
:10016F00E590540FFDBD0F037FFF227F1412000394
:0C017F00E590540FB50503AF05227FFF8B
:01018B002251
:0300230002018C4B
:07018C00C0E0C0D075D010E7
:10019300309838C298E599B4AA05E4F525C2002041
:1001A300002D74212525F8A6990525E525C394047A
:1001B300401DE524B4CC0F852228852329D201E4F0
:0F01C300F525D2008009E4F5258004C2B7C29962
:0501D200D0D0D0E032A6
:0800180020B7FDD2B78F992239
:1001D70012016FBFFF10D2957F32120003C2957FC5
:1001E7003212000380EA7FAA1200187F5212001809
:1001F7001200187FBB120018B2957FC81200033097
:1002070001E4C201E528B529DDF5267FAA12001809
:10021700AF261200187FDD1200187FBB1200187F6F
:100227000A7E00AD267C001200817F327E00AD265B
:100237001200818528267F0A120105EFB52611ECE9
:10024700B5060D7F32120105EF65267001EE600AD3
:0D025700D295D297D296D29480FEC2952205
:10026400C297C296C295C294E4F52DC201C2B77575
:100274002B4E7F0A1201058F26759850E4F5877579
:100284008920758DE875A890D28E7F32120105EF12
:1002940065267001EE60051201D78022D2947FC8D2
:1002A400120003C294D2957FC8120003C295D2965D
:1002B4007FC8120003C296D2977FC8120003C29768
:1002C400C296C295C294200103020389C201E528A3
:1002D40065267066E5292430603E2410705C7FAA90
:1002E400120018AF261200187FC11200187FBB122B
:1002F4000018D2947FC8120003C294D2957FC8120A
:100304000003C295D2967FC8120003C296D2977F8B
:10031400C8120003C29780227FAA120018AF2612C7
:100324000018AF2B1200187FBB120018752B4EE477
:10033400F52DC297C296C295C294E52864EE704525
:10034400E52924BE601C24FE602824646034249DB6
:100354007033752B4EC297C296C295C294752D0107
:100364008023752D02C297C296C295C294752B4EF6
:100374008013E4F52DC297C296C295C294752B4E94
:1003840080031201D712016FEF606E24F9605324C9
:10039400FC603824FE601D1460030202CAE52D646B
:1003A4000160030202CA752B30D294C295C296C270
:1003B400970202CAE52D640260030202CA752B315A
:1003C400C294D295C296C2970202CAE52D64026015
:1003D400030202CA752B32C294C295D296C2970206
:1003E40002CAE52D640260030202CA752B33C2946B
:1003F400C295C296D2970202CAE4F52C12016FEF9D
:10040400700E7F0A120003052CE52CC3946440ECA3
:10041400E52C646460030202CA7F0AFE7DFFFC12BD
:0804240000811201D70202CA97
:01042C0022AD
:0300000002042DCA
:0C042D00787FE4F6D8FD7581330202648C
:00000001FF
