:100003008F30E530D394004012753100E531C3944D
:0C001300735004053180F5153080E722A1
:0504B400D2B4C2B42225
:10039B008E188F1985181B85191CC2B3C2B4C2B530
:1003AB00D2B2D2B530B2FDD2B391B4E51B915603A4
:1003BB00CA0003CF0103D40203D903000003DC7589
:1003CB001C00800D751C308008431CC08003751CFD
:1003DB0020751A00C3E51A64809488501BE51C78BD
:1003EB0007A2E713D8FBFFEF24FF92B391B4E51CF0
:0F03FB0025E0F51C051A80DCC2B3C2B4C2B522DE
:1001DB008E088F098C0A8D0B7F007E01719B850821
:1001EB000C85090DC2B3C2B4C2B5D2B2D2B530B20E
:1001FB00FDD2B391B4E509B4FF0AE508B4FF057568
:10020B000D108003430D40750E00C3E50E64809402
:10021B0088501BE50D7807A2E713D8FBFFEF24FFEF
:10022B0092B391B4E50D25E0F50D050E80DC750E4E
:10023B0000C3E50E648094905026E50BAE0A780F50
:10024B00CEA2E713CE13D8F8FFEE4F24FF92B39153
:10025B00B4E50B25E0F50BE50A33F50A050E80D165
:0D026B00C2B3C2B4C2B57F007E00719B22F9
:10030A008F2B432B80752D00C3E52D6480948A5072
:10031A0041C2B3C2B4C2B5D2B2D2B530B2FDD2B5BF
:10032A00D2B391B4752C00C3E52C64809488501B19
:10033A00E52B7807A2E713D8FBFFEF24FF92B391CE
:10034A00B4E52B25E0F52B052C80DC30B20F052D0A
:10035A0080B6C2B3C2B4C2B57EFF7FFF22752C003D
:10036A00C3E52C64809490501DE52F25E0F52FE518
:10037A002E33F52E91B4A2B2E4FE33FFEE422EEFF5
:10038A00422F052C80DAC2B3C2B4C2B5AE2EAF2F4B
:01039A002240
:10047C00E590540FF50FE50FB40F037FFF227F14A7
:10048C001103E590540FFFEFB50F03AF0F227FFF61
:01049C00223D
:02002300810A50
:10040A00C0E0C0D075D010309839C298E599B4AA26
:10041A0005752500C20020002EAF2574212FF8A6ED
:10042A00990525E525C39404401DE524B4CC0F8520
:10043A002227852328D201752500D2008009752537
:0C044A00008004C2B7C299D0D0D0E032CC
:0B04A9008F3220B7FDD2B785329922B8
:10027800917CEFB4FF0ED2957F321103C2957F3285
:10028800110380EC7FAA91A97F5291A97F5291A96D
:100298007FBB91A9B2957FC811033001E7C201E580
:1002A80027B528E085272A7FAA91A9AF2A91A97F97
:1002B800DD91A97FBB91A9AF2AEFFD7C007F0A7E63
:1002C8000031DBAF2AEFFD7C007F327E0031DB8519
:1002D800272A7F0A710AAD2A7C00EFB50514EEB50E
:1002E80004107F32710AAD2A7C00EF6D7002EE6C4B
:1002F800600AD295D297D296D29480FEC295228077
:0203080083224E
:10002500C297C296C295C294751F00C201C2B77528
:100035001D4E7F0A710A8F2A75985075870075893C
:1000450020758DE875A890D28E7F32710AAD2A7C15
:1000550000EF6D7002EE6C60045178801ED2947FC3
:10006500C81103C294D2957FC81103C295D2967F59
:10007500C81103C296D2977FC81103C297C296C210
:1000850095C294200102213FC201E527652A705ED1
:10009500E528915600A3C000D5D0000000F37FAA43
:1000A50091A9AF2A91A97FC191A97FBB91A9D294AA
:1000B5007FC81103C294D2957FC81103C295D29609
:1000C5007FC81103C296D2977FC81103C297801EBD
:1000D5007FAA91A9AF2A91A9AF1D91A97FBB91A92B
:1000E500751D4E751F00C297C296C295C294E5272D
:1000F50064EE7046E5289156011D42010D43012D20
:1001050044013DE00000013F751D4EC297C296C2F5
:1001150095C294751F018022751F02C297C296C2AF
:1001250095C294751D4E8012751F00C297C296C266
:1001350095C294751D4E80025178917CEF915601C0
:10014500AB00015707016C0B01810D01960E0000F4
:100155000088E51F640160020188751D30D294C2D4
:1001650095C296C2970188E51F64026002018875F1
:100175001D31C294D295C296C2970188E51F6402CB
:1001850060020188751D32C294C295D296C297014C
:1001950088E51F640260020188751D33C294C2950B
:1001A500C296D2970188751E00E51EC39464500D52
:1001B500917CEF70087F0A1103051E80ECE51E6433
:1001C50064600201887DFF7C007F0A7E0031DB517F
:0601D50078018801882278
:0300000002049D5A
:0C049D00787FE4F6D8FD7581320200255E
:10045600D083D082F8E4937012740193700DA3A335
:1004660093F8740193F5828883E473740293686049
:06047600EFA3A3A380DF49
:00000001FF
