:04001E00C103C10257
:05000300D293C293221C
:100026008E0C8F0DC280C293C2B3D2B5D2B330B597
:10003600FDD280120003AF0CEF14600F1460111490
:10004600601324037012E4F50D800D750D308008E1
:10005600430DC08003750D20E4FFE50D7807A2E788
:1000660013D8FB24FF9280120003E50D25E0F50D61
:0B0076000FBF08E6C280C293C2B32295
:100081008C0A8D0BAB077F007E01120026430340D3
:10009100C280C293C2B3D2B5D2B330B5FDD2801201
:1000A1000003E4FDEBC4131313540124FF928012E7
:1000B1000003EB25E0FB0DBD08EAE4FDE50BAE0A0C
:1000C100780FCEA2E713CE13D8F84E24FF928012F8
:1000D1000003E50B25E0F50BE50A33F50A0DBD102C
:0E00E100DBC280C293C2B3E4FFFE12002622EF
:1000EF00430780E4FEC280C293C2B3D2B5D2B3300D
:1000FF00B5FDD2B3D280120003E4FDEFC413131386
:10010F00540124FF9280120003EF25E0FF0DBD087C
:10011F00EA30B50F0EBE0ACDC280C293C2B37EFFC6
:10012F007FFF22E4FDE50B25E0F50BE50A33F50A29
:10013F00120003A2B5E433420BE40DBD10E7C280F9
:09014F00C293C2B3AE0AAF0B2249
:0E000800E5A054F0FFBFF0037F00227F01222D
:10015800E5A054F0F50AB4F0037F0F227F141206CD
:0E016800ABE5A054F0B50A03AF0A227F0F22C8
:0300230002017661
:10017600C0E0C0D075D010309838C298E599B4AABE
:1001860005E4F525C20020002D74212525F8A69941
:100196000525E525C39404401DE524B4BB0F85223F
:1001A60030852331D203E4F525D2008009E4F52514
:0B01B6008004C2B4C299D0D0D0E03267
:0800160020B4FDD2B48F992241
:1001C100E4F50A300305C2037F01227F0A1206AB60
:0C01D100050AE50AC3941440EA7F0022EE
:1001DD00C2B3C297C296C295C294C292C291C29046
:1001ED00D294C2B4759850E4F587758920758DE861
:1001FD0075A890D28ED2A3D2B7D2B67FFA1206AB23
:10020D007F037D80120647E4FF7D0C1206477F01B8
:10021D00E4FD1206477F037D031206477F047D0B25
:10022D001206477F03120657EF547FFD7F03120618
:10023D00477F047D021206477F3F1200EF8F2D305E
:10024D00036DC203E53124AE7065E4F508E508C31E
:10025D0094405050AF081200EFEF64117003EE643C
:10026D0011603DE4F509D2043004397FAA1200165D
:10027D00AF08120016AF081200167FCC120016AF91
:10028D00087411FDFC12008105341206CCC2040560
:10029D0009E509B40AD2752E811206CCC20480C8B4
:1002AD00050880A9E508B44006752E801206CC120B
:1002BD00066AEF70030205CAE536652D6003020577
:1002CD0031E5371207B4033AD002F5E00393E303A7
:1002DD00D8E40427E5046CE604DBF104F1F205072C
:1002ED00F3051DF4000005317FAA1200167FEE12F2
:1002FD0000167FE01200167FCC1200167FAA1200A6
:10030D00167FEE1200167FE01200167FCC1200163B
:10031D007FAA1200167FEE1200167FE01200167FE4
:10032D00CC120016752E051206CC020531E4F534FB
:10033D00F508AF081200EFEF64117003EE64117051
:10034D00307FAA120016AF081200167FC0120016D9
:10035D007FCC1200161201C1EF6016E530B5081101
:10036D00E531B4C10405348008AF08E4FDFC12008A
:10037D00810508E508C3944040B8752E061206CCD9
:10038D00E4F52E0205317FAA1200167FEE1200163B
:10039D007F431200167FCC1200167FAA1200167F23
:1003AD00EE1200167F431200167FCC1200167FAAA4
:1003BD001200167FEE1200167F431200167FCC122C
:1003CD000016752E011206CC020531E4F53AF5083A
:1003DD00AF081200EFEF64117003EE641170267F09
:1003ED00AA120016AF081200167FD01200167FCC8D
:1003FD001200161201C1EF600CE530B50807E531AA
:10040D00B43002053A0508E508C3944040C2752E84
:10041D00021206CCE4F52E0205317FAA1200167FDA
:10042D00EE1200167F421200167FCC1200167FAA24
:10043D001200167FEE1200167F421200167FCC12AC
:10044D0000167FAA1200167FEE1200167F421200D0
:06045D00167FCC12001610
:10046300752E031206CC020531E4F52CF52BF53B72
:10047300F539F508AF081200EFEF64117003EE646D
:100483001170417FAA120016AF081200167FD01216
:1004930000167FCC1200161201C1EF6027E530B5BC
:1004A3000822E53124CF600E14600F14601024E598
:1004B3007010052C800E052B800A053B800605393C
:1004C3008002D2020508E508C3944040A7752E04B4
:1004D3001206CCE4F52E8056D294C292C291C290F9
:1004E300C297C296C2957533011206CC8040D2954D
:1004F300C297C296C294D290C292C291753302122D
:1005030006CC802AD296C297C295C294D291C29247
:10051300C2907533031206CC8014D297C296C2954B
:10052300C294D291D290C2927533041206CCE536AE
:1005330064EE60030205CAE537241160030205CAAD
:10054300752E07E4F508AF0874FFFDFC1200810562
:1005530008E508C3944040EEE4F534D297D296D22E
:1005630095D294120008EF60FAC297C296C295C260
:10057300947FC81206ABD297D296D295D294D20466
:100583003004441206CCE4F508E508C394FF50F0A8
:1005930012066AEF6028E53764F0702285362D7500
:1005A3002E081206CC7F3FE52DFD7C00120081C290
:1005B30097C296C295C294E4F52EC20480C27F010D
:1005C3001206AB050880C2120008EF700302024C4A
:1005D300120158EF2450602624E0603924F0604C67
:1005E3002470600302024CD294C292C291C290C2A0
:1005F30097C296C2957533011206CC02024CD2956E
:10060300C297C296C294D290C292C291753302121B
:1006130006CC02024CD296C297C295C294D291C222
:1006230092C2907533031206CC02024CD297C29643
:10063300C295C294D291D290C2927533041206CC61
:0406430002024C2241
:10064700EF44F8F5A08D80C2A3C2B6D2B6D2A322DA
:100657007580FFEF44F8F5A0C2A3C2B7AF80D2B749
:03066700D2A322F9
:10066A007F05120657EF540164017032FF120657D4
:10067A00BFAB05E4F52AC2012001237426252AF816
:10068A00A607052AE52AC394044013E529B4CC0E2B
:10069A00852736852837E4F52AD2017F01227F0093
:0106AA00222D
:1006AB00EFD394004009E4FE0EBE64FC1F80F122E0
:1006BB00AD077F05120657EF30E5F7E4FF1206474B
:0106CB00220C
:1006CC007FAB1206BB7EABAF2D1206BBE52D2EFE0B
:1006DC00AF341206BBE5342EFEAF2E1206BBE52E50
:1006EC002EFEAF3A1206BBE53A2EFEAF391206BB10
:1006FC00E5392EFEAF3B1206BBE53B2EFEAF2B12AF
:10070C0006BBE52B2EFEAF2C1206BBE52C2EFEAF46
:0C071C00331206BBE5332EFF1206BB2291
:03000000020728CC
:0C072800787FE4F6D8FD75813B02076F76
:1007B400D083D082F8E4937012740193700DA3A3D4
:1007C40093F8740193F5828883E4737402936860E8
:0607D400EFA3A3A380DFE8
:100734000201DDE493A3F8E493A34003F68001F2FD
:1007440008DFF48029E493A3F85407240CC8C333C6
:10075400C4540F4420C8834004F456800146F6DF95
:10076400E4800B010204081020408090001EE47E07
:10077400019360BCA3FF543F30E509541FFEE4938A
:10078400A360010ECF54C025E060A840B8E493A351
:10079400FAE493A3F8E493A3C8C582C8CAC583CA7C
:1007A400F0A3C8C582C8CAC583CADFE9DEE780BE34
:0100220000DD
:00000001FF
